{
  "_format": "hh-sol-artifact-1",
  "contractName": "Richest",
  "sourceName": "contracts/Richest.sol",
  "abi": [
    {
      "inputs": [],
      "name": "becomeRichest",
      "outputs": [
        {
          "internalType": "bool",
          "name": "",
          "type": "bool"
        }
      ],
      "stateMutability": "payable",
      "type": "function"
    },
    {
      "inputs": [],
      "name": "getRichest",
      "outputs": [
        {
          "internalType": "address",
          "name": "",
          "type": "address"
        }
      ],
      "stateMutability": "view",
      "type": "function"
    },
    {
      "inputs": [],
      "name": "withdraw",
      "outputs": [],
      "stateMutability": "nonpayable",
      "type": "function"
    }
  ],
  "bytecode": "0x6080604052600080546001600160a01b031916905534801561002057600080fd5b506101bb806100306000396000f3fe6080604052600436106100345760003560e01c80633ccfd60b1461003957806369934ee7146100505780639a5dd7351461006d575b600080fd5b34801561004557600080fd5b5061004e610095565b005b610058610101565b60405190151581526020015b60405180910390f35b34801561007957600080fd5b506000546040516001600160a01b039091168152602001610064565b33600081815260026020526040808220805490839055905190929083908381818185875af1925050503d80600081146100ea576040519150601f19603f3d011682016040523d82523d6000602084013e6100ef565b606091505b50509050806100fd57600080fd5b5050565b600060015434116101125750600090565b600154600080546001600160a01b03168152600260205260408120805490919061013d90849061015e565b9091555050600080546001600160a01b031916331790555034600190815590565b8082018082111561017f57634e487b7160e01b600052601160045260246000fd5b9291505056fea264697066735822122084278fcbfd134c0f553642987787bfa226368d646ef30c41f74c74f07f4d2d6164736f6c63430008130033",
  "linkReferences": {},
  "deployedLinkReferences": {}
}